:020000020000FC
:2000000000400074084050140800683A0000000000000000000000000000000000000000D6
:20000800DEFFED04DFC00015D8400215D8800315D8C00415D9000515D9400615D98007156A
:20001000D9C00815000B307ADA000915DA400A15DA800B15DAC00C15DB000D15DB400E15C4
:20001800DB800F15DBC01015D9401115EBFFFF04DBC012150009313A2880004C10000326FA
:200020002000022600100EC000000306DF401215E8BFFF17003DA03AD9401117DF401217EE
:20002800DFC000172801707AD8400217D8800317D8C00417D9000517D9400617D9800717F7
:20003000D9C00817DA000917DA400A17DA800B17DAC00C17DB000D17DB400E17DB800F17CA
:20003800DBC01017DEC01304EF80083ADEFFFF04DFC000150009313A00C0004401400074BF
:200040002946C90420C4703A18C7883A100007262900011728800017103EE83A0005313A18
:20004800100004261009883A003FF30629400204003FF406DFC00017DEC00104F800283AF0
:2000500006C00074DEE7101406800074D6A639140010D5000010DBC0003FFF06010000B421
:2000580021044E042000003500C0007418C5C204008000B41084490410C00035D0E0001704
:200060001080010410C0003500C008041080010410C000350080268420800035F800283A27
:20006800DEFFFE04DFC00115001015C00009883A014000440180007431807304000F883AC1
:20007000D80000150010CC00003FFF06DEFFFE04DC000015DFC001150021883AD0A0001774
:20007800010000742105BC041405883A1140000784000044001021C00080080480BFF71E41
:20008000008000B41084480410000035DFC00117DC000017DEC00204F800283ADEFFFB0483
:20008800DFC00115D9400215D9800315D9C004150080007410863A0411400017D8800204C2
:20009000D880001529C00217100D883A0080007410826204200B883A388001153809883A58
:2000980000109640DFC00117DEC00504F800283ADEFFFC04DFC00115D9800215D9C00315F7
:2000A00022000217D8800204D8800015100F883A0080007410826204280D883A40800115A0
:2000A800400B883A00103340DFC00117DEC00404F800283ADEFFFB04DC800315DC4002156E
:2000B000DC000115DFC004152025883A2823883A3821883AD98000059009883A880B883A49
:2000B800D80D883A01C0004404000B0E88C00117843FFFC4183EE83A103FF72600BFFFC413
:2000C000DFC00417DC800317DC400217DC000117DEC00504F800283A0005883ADFC0041745
:2000C800DC800317DC400217DC000117DEC00504F800283ADEFFE404DDC01915DD8018155E
:2000D000DCC01515DC401315DC001215DFC01B15DF001A15DD401715DD001615DC80141550
:2000D800D90010152827883AD9C011153023883A0021883AD8000F15D8000E15002F883A5A
:2000E000D8000915D8000D15D8000C15D8000B15002D883A8940000301C000448C4000444F
:2000E80029003FCC2100201C213FE0042000152681C033263C002016803FF61E008009441C
:2000F0002081311E05FFFFC400800284D9C00C15D8000F15D8000E15DDC00915D8800D154D
:2000F800D8000B15894000033821883A8C40004429003FCC2100201C213FE00401C000441F
:20010000203FEB1EB005883ADFC01B17DF001A17DDC01917DD801817DD401717DD00161771
:20010800DCC01517DC801417DC401317DC001217DEC01C04F800283A0080008480801526E6
:20011000008000C480BFD31E29BFF40430C03FCC0080024410C01C36D8C0091718010816A9
:20011800D900091720C002A430803FCC1080201C10BFE0041887883AD8C00915003FC506ED
:2001200000800C04208095260080094420810E260400008429BFF40430C03FCC0080024409
:2001280010C00736B8009816B9C002A430803FCC1080201C10BFE00438AF883A003FB50648
:2001300000800B8420808A2600801B0420808A26D8C0091718008E16D8000F1528BFEA041C
:2001380010803FCC00C00804188028361085883A1085883A00C0007418C1420410C5883AB2
:20014000110000172000683A000107840001058C0001058C0001058C0001058C0001058C4F
:200148000001058C0001058C0001058C0001058C0001058C0001079C000105A00001058CE1
:200150000001058C0001058C0001058C000105A00001058C0001058C0001058C0001058CEB
:200158000001058C000108040001058C0001058C0001058C000108140001058C0001059CE1
:200160000001058C0001058C000105940021883A003F800600800404D8800D15D8000C151E
:20016800D8800C1710006C1ED900111721C0010424000017D9C01115D8000A1580006D2677
:20017000D8C00B17DC8000449039883A054002441829003A0000050621000C0491000005B2
:200178009480004418000E261821883AD9400D178009883A0010C180D9000D171007883A19
:200180002085383A8089C83AA93FF30EA000361E21000DC49100000594800044183FF21E19
:200188009729C83AD8800917150BC83A0140100EE080080490800E2E00800C0428FFFFC46A
:20019000908000059100004400C0070EE08008042080052E00800C042080000521000044B7
:200198009145883A20BFF91E2729C83A2025883AD8C00A17D9000F171D05883AB8A1C83A69
:2001A000200026261805003A1000A22604009916B005883A0500890E102D883A1521883AE7
:2001A80000000206B580004485BFB82694BFFFC49080000398C00117D9001017D88000059E
:2001B000980B883AD80D883A01C00044183EE83A103FF42605BFFFC4003F4A06040000849F
:2001B800D9C00F15003F2B06210015C4003FBB06040000C4003F270600800044040000C440
:2001C000D8800E15003F2306000F883A003F670601000044D9000915003F7006040089162B
:2001C800D8C00A171805003A103FD91E98C00117D900101700800B44D8800005980B883AC0
:2001D000D80D883A01C00044183EE83A103FE11EB0800044003FCF06D8C011171C00001722
:2001D80018C00104D8C0111580005016D8000A15803F931EDC8000449039883A0029883A09
:2001E000003FA8060080040400C00044D8800D15D8000C15D8C00B15003F8106040000444D
:2001E80085C0080ED9001017980B883A01800804B9FFFFC400102B40103FC61EBD85883A7D
:2001F00015BFFFC4D8C01117D9001017800F883A1880001798C00117980B883AD880000566
:2001F800D80D883A183EE83A103FBA1ED9001117B58000440021883A21000104D90011151F
:20020000003EE40601000204D9000D15D8000C15003F6306D880111715000017A009883AFC
:200208000010A440B8A1C83A1025883A0400070ED9001017980B883A01800804800F883A34
:2002100000102B40103FA31EB42D883A98C00117D9001017A00D883A980B883A900F883AFB
:20021800183EE83A103F9B1ED8C01117B4AD883A0021883A18C00104D8C01115003EC506DC
:200220000007883A003EF80698C00117D9001017D9400005D80D883A980B883A183EE83AA7
:20022800103F8C1EB5800044003EBA06008000440421C83AD8800A15003F4006102D883A60
:200230000021883A003EB30698C00117D9000005D9001017980B883AD80D883A800F883A29
:20023800183EE83A103F7B1EB42D883A0021883A003EA806D9001017980B883A01800C04DE
:20024000800F883A00102B40103F721EB405883A003F600698C00117D900101700800B4494
:20024800D8800005980B883AD80D883A01C00044183EE83A103F671EB5800044043F540EBE
:20025000003FEC06D9001017980B883A01800804800F883A00102B40103F5E1EB42D883A31
:20025800003F6F060080007410863A042013883A110000172805883A300F883A480B883AE8
:20026000100D883A001033412880000BDEFFFA04DCC003151080020CDC800215DC40011596
:20026800DFC00515DD000415DC0000152825883A2027883A3023883A100020262940008F5B
:2002700028000F1601C01B0E3821883A05010004000002060400170E9140008F880D883A2A
:200278009809883A800F883AA400010E01C100040010A64088A3883A80A1C83A00BFF51669
:200280009080000B00FFFFC4108010149080000D1805883ADFC00517DD000417DCC0031768
:20028800DC800217DC400117DC000017DEC00604F800283A0007883A003FF50600FFFFC4F3
:20029000003FF30620800007100005262007883A18C0004418800007103FFD1E1905C83A06
:20029800F800283ADEFFFD04DC000015040000748406C404DC400115800000152023883A87
:2002A0002809883A300B883A380D883ADFC002150010DE801007883A00BFFFC41880062604
:2002A8001805883ADFC00217DC400117DC000017DEC00304F800283A80800017103FF826F5
:2002B000888000151805883ADFC00217DC400117DC000017DEC00304F800283A29001B2EE2
:2002B80028001A16008000440007883A01C007C40000030619C0132618C00044280004163C
:2002C000294B883A1085883A293FFA3610000D260007883A214002362149C83A1886B03A60
:2002C8001004D07A280AD07A103FFA1E300002262005883AF800283A1809883A2005883A72
:2002D000F800283A0007883A003FF806008000440007883A003FEF06DEFFFE04DC0000151D
:2002D800DFC001150021883A20000C16000D883A28000E160010ADC01007883A8005003AFC
:2002E0001000011E00C7C83A1805883ADFC00117DC000017DEC00204F800283A0109C83A73
:2002E80004000044000D883A283FF20E014BC83A8021003A003FEF06DEFFFF04DFC0001587
:2002F000018000442807883A2000041628000C16DFC00017DEC001040010ADC10109C83AD1
:2002F80028000B16180B883A018000440010ADC00085C83ADFC00017DEC00104F800283A3C
:20030000014BC83ADFC00017DEC001040010ADC10147C83A003FF306000D883A0010ADC1E9
:20030800018000440010ADC1000530FA00C000441946983A10C4703A1004C03AF800283A48
:20031000000D303A00BFFF843084703A1001703A010000742106C50400C0004420800017DB
:200318001946983A10C4B03A2080001520800017100170FA3001703A0005883AF800283AF3
:20032000000D303A00BFFF843084703A1001703A010000742106C50400FFFF84208000174D
:200328001946183A10C4703A2080001520800017100170FA3001703A0005883AF800283AA3
:200330000010CC41DEFFFE04008007C4DFC00115DC00001500FFFA84114010160021303A41
:2003380000BFFF848084703A1001703A280490FA00C0007418C6C90410C5883A11C00115E7
:2003400011800015300002260010C400000001060010C8001007883A8001703A1805883A09
:20034800DFC00117DC000017DEC00204F800283A2900051EF800283A20800017210001046A
:20035000288000152940010429BFFB1EF800283ADEFFFF040100007421064304014000748F
:200358002945C2040180007431864304DFC000150010D30001000074210008040140007470
:200360002940080401800074318050040010D300010000742105BC04014000742945BC04ED
:20036800018000743185C2040010D30000114D40DFC00017DEC0010400116681DEFFFF0452
:200370000009883ADFC000150010E9C00010E600D1208D17D1608E17D1A08F17DFC0001707
:20037800DEC0010400101A01DEFFFF042007883A00800044DFC00015000F883A0100007410
:2003800021063D0418800526008000841880061E0100007421063D04000F883ADFC000170E
:20038800DEC0010400114A0100800074108642041080001700C0007418C6C40410000226CD
:20039000103EE83A1007883A008014441880001500BFFFC4DFC00017DEC00104F800283A4A
:20039800DEFFFE040080004401000074210602040140007429460904018000B43184480499
:2003A000000F883ADFC00115D880001500111300DFC00117DEC00204F800283ADEFFFF0491
:2003A800DFC0001500116740008000441001703ADFC00017DEC00104F800283A2240061718
:2003B000DEFFFF04DFC0001548800517108003CC3086703A2884703A10001A1E1800191E09
:2003B8004880061711801736488004174900031702FFF9041006913A10800044128000CC0B
:2003C00018C0190448D1883A51000F26D880011748C00817418001154809883A0017883A6D
:2003C800408003154140001541C002154A8004151800051E48800717103EE83A0017883A42
:2003D0000000010602FFFA845805883ADFC00017DEC00104F800283A2080061710C002170F
:2003D8001080011710C9C83A217FFFC418800136214000C42805883AF800283A2240061763
:2003E000DEFFFF04DFC0001548800517108003CC3086703A2884703A10001A1E1800191ED9
:2003E8004880061711801736488002174900011702FFF9041006913A10800044128000CCDF
:2003F00018C0090448D1883A51000F26D880011748C00817418001154809883A0017883A4D
:2003F800408003154140001541C002154A8002151800051E48800717103EE83A0017883A14
:200400000000010602FFFA845805883ADFC00017DEC00104F800283A20C0031720800417CF
:20040800200B883A18800D262080031700C0004428C008151004913A210000171080190495
:200410002885883A10C0001720C0023528C000171080011718800335F800283A2000081551
:20041800F800283A20C0011720800217200B883A18800D262080011700C0004428C0081540
:200420001004913A21000017108009042885883A10C0001720C0013528C0001710800117F5
:2004280018800335F800283A20000815F800283A20C0011720800217200D883A18801A267B
:2004300020C0031720800417188017262100011730C00317008000442008913A1806913A3F
:2004380030800815210009043109883A314000172080001718C0190430C7883A28800135E2
:2004400031400017188000172880023519C001172080011730C000173880012E3805883AF0
:2004480018800335F800283A30000815F800283ADEFFFC04DA000417DC400215DC000115CC
:200450002823883A2021883A3807883A00840004DFC00315308006353080063500803F04A3
:20045800308006353000003521C00617400B883A1809883A018000743184E904D8000015C2
:200460000010CC008009883A01400074294640041000091600114D808809883A01400074D8
:2004680029463E04DFC00317DC400217DC000117DEC0040400114D81DFC00317DC4002176E
:20047000DC000117DEC00404F800283A20C00117208002171880621E20C0031720800417FA
:2004780018805F1E208000171080033710005C1E297FFFC400800204114011362945883A8B
:2004800000C0007418C487041085883A10C5883A1080001720C005171000683A0001124823
:200488000001127000011278000112A0000112BC000112C8000112D8000112E8000112F8F8
:2004900000BFF9C4F800283A1880100C1000441E20800017118001352080051700C00074E2
:2004980018C4060420C00715108008140000250600BFF7C400000B061880080C1000381EEE
:2004A00020800017118002352080051700C0007418C4190420C00715108010140000190605
:2004A80000BFEFC41884703A208005150080007410842C042080071500002B0600BFFC045E
:2004B0001884703A00000F0600BFFC041884703A1080005400000B0600BFFC041884703AD2
:2004B800108000D40000070600BFFC041884703A108001D40000030600BFFC041884703A3B
:2004C000108003D42080051500001706100B883A00000506014000840000030601400104E2
:2004C80000000106014100043080080C1000032620C0001728807E14000006063080100CC1
:2004D00020C00017100002262880BE140000010628803E14188006350005883AF800283A6E
:2004D80000BFFEC4F800283A218005170080004430C003CC18BFE72618BFE436008000C4D0
:2004E00018BFE626008001C418BFE62601420004003FE5062100061700111CC12100061716
:2004E80000111CC120C00517DEFFFA04DC0000151880080C1020C03ADD000415DCC00315BE
:2004F000DC800215DC40011524800117DFC005152023883A250003171CC0100C8000031EF5
:2004F80090800044108000CC208001159800031EA0800044108000CC8880031588800017C6
:2005000010000035888000171080003788800717103EE83A80000C1E9004913A1080090474
:200508008887883A19400217280007260021303A00BFFF848084703A1001703A19000317D2
:20051000283EE83A8001703A98000D1EA004913A108019048889883A20C002171800082627
:200518000021303A00BFFF848084703A1001703A2140001721000317183EE83A8001703A37
:20052000DFC00517DD000417DCC00317DC800217DC400117DC000017DEC00604F800283AB4
:2005280021000017298F883A20C00104000006061880003710BFFFEC10000326288000079F
:20053000294000442080003529FFF9363005883AF800283AF800283ADEFFFF04DFC0001593
:200538002000032620800217000D883A10000C1E00800074108642041080001700C00074ED
:2005400018C6C40410000226103EE83A1007883A0080058401BFFA84188000150000060674
:200548002880001721400115208000152880001729000015110001153005883ADFC00017D7
:20055000DEC00104F800283ADEFFFE04D1600504DC000015DFC0011500115F801021883AEC
:2005580010000A1E00800074108642041080001700C0007418C6C40410000226103EE83A52
:200560001007883A008004C4188000158005883ADFC00117DC000017DEC00204F800283ABE
:20056800DEFFFE04D1600704DC000015DFC0011500115F801021883A10000A1E00800074A3
:20057000108642041080001700C0007418C6C40410000226103EE83A1007883A008004C445
:20057800188000158005883ADFC00117DC000017DEC00204F800283ADEFFFB04DCC0031537
:20058000DC800215DC400115DC000015DFC004152C0000172823883A2027883A0010A440C0
:2005880014800044000004068100021700116B401000052684000017980B883A900D883A81
:20059000847FF91E0021883A8005883ADFC00417DCC00317DC800217DC400117DC000017FB
:20059800DEC00504F800283A0009883A01440004001167C1000170FAF800283A00840004A8
:2005A0002007883A1140012E100B883A194B883A000002061800603A18C00804197FFD3666
:2005A800208007CC100001261800603A0000203AF800283A31FFFFC43000061E00000A06CC
:2005B00039FFFFC400BFFFC421000044294000443880052620C000032880000318BFF82636
:2005B8001885C83AF800283A0005883AF800283A657479620A642520000000007665642F34
:2005C000616D642F0000305F0000000000000000000000000000000000000000000000002B
:2005C800000000000000000000000000000000000000000000000000000000000000000013
:2005D00000000000000000000000000000000000000000000000000000000000000000000B
:2005D800000000000000000000000000000000000000000000000000000000000000000003
:2005E0000000000000000000000000000000000000000000000000000000000000000000FB
:2005E8000000000000000000000000000000000000000000000000000000000000000000F3
:2005F0000000000000000000000000000000000000000000000000000000000000000000EB
:2005F8000000000000000000000000000000000000000000000000000000000000000000E3
:200600000000000000000000000000000000000000000000000000000000000000000000DA
:200608000000000000000000000000000000000000000000000000000000000000000000D2
:200610000000000000000000000000000000000000000000000000000000000000000000CA
:200618000000000000000000000000000000000000000000000000000000000000000000C2
:200620000000000000000000000000000000000000000000000000000000000000000000BA
:200628000000000000000000000000000000000000000000000000000000000000000000B2
:200630000000000000000000000000000000000000000000000000000000000000000000AA
:200638000000000000000000000000000000000000000000000000000000000000000000A2
:2006400000000000000000000000000003020100070605040C0B0908100F0E0D14131211D2
:20064800181716151C1B1A19001F1E1D00000000000117E8000117F0000117F8000000005C
:2006500000000000000000000000000000000000000000000000000000000000000000008A
:20065800000000000000000000000000000000000000000000000000000000000000000082
:2006600000000000000000000000000000000000000000000000000000000000000000007A
:20066800000000000000000000000000000000000000000000000000000000000000000072
:2006700000000000000000000000000000000000000000000000000000000000000000006A
:2006780000000000000000000000000000000004000000000001000A000000000002000A47
:200680000000000000000000000000000000000000000000000116FC00010F5800010F7C53
:200688000001139C000118400000000000000000000116FC0000000300010EBC00011394C0
:200690000001184000021120000000000000000000000000000000000000000300001FFF9D
:20069800000110B00000000000000000000000000000000000000000000000000000000081
:2006A00000000000000000000000000000000000000000000000000000000000000000003A
:2006A800000000000000000000000000000000000000000000000000000000000000000032
:2006B00000000000000000000000000000000000000000000000000000000000000000002A
:2006B8000000000000000000000210800001172800011728FFFFFFFF00021148000118F8A8
:2006C000000118F800011900000119000000000000000000000000000000000000000000D5
:2006C800000000000000000000000000000000000000000000000000000000000000000012
:2006D00000000000000000000000000000000000000000000000000000000000000000000A
:2006D800000000000000000000000000000000000000000000000000000000000000000002
:2006E0000000000000000000000000000000000000000000000000000000000000000000FA
:00000001FF
