:020000020000FC
:200000000040007408406D140800683A0000000000000000000000000000000000000000B9
:20000800DEFFED04DFC00015D8400215D8800315D8C00415D9000515D9400615D98007156A
:20001000D9C00815000B307ADA000915DA400A15DA800B15DAC00C15DB000D15DB400E15C4
:20001800DB800F15DBC01015D9401115EBFFFF04DBC012150009313A2880004C10000326FA
:200020002000022600100EC000000306DF401215E8BFFF17003DA03AD9401117DF401217EE
:20002800DFC000172801707AD8400217D8800317D8C00417D9000517D9400617D9800717F7
:20003000D9C00817DA000917DA400A17DA800B17DAC00C17DB000D17DB400E17DB800F17CA
:20003800DBC01017DEC01304EF80083ADEFFF904DFC00615DF000515DF0005040005313A9B
:20004000E0BFFC15E0BFFC17E0BFFF15E03FFD1500800044E0BFFE15E0FFFF17E0BFFE173B
:200048001884703A1005003A1000161EE0BFFD1700C0007418C92904100490FA10C5883A95
:2000500011400017E0BFFD1700C0007418C92904100490FA10C5883A108001041100001741
:20005800283EE83A0005313AE0BFFB15E0BFFB17E0BFFF15E0BFFF171004C03A103FE31E6A
:2000600000000706E0BFFE171085883AE0BFFE15E0BFFD1710800044E0BFFD15003FDE065B
:20006800E037883ADFC00117DF000017DEC00204F800283A06C00074DEE7101406800074D7
:20007000D6A85F1400103FC000104E80003FFF06DEFFFE04DFC00115DF000015D839883AF3
:200078000100007421079F04001029400005883AE037883ADFC00117DF000017DEC00204BE
:20008000F800283ADEFFFD04DC0000152021883A2809883ADFC00215DC4001152823883A4C
:2000880000102A8080C00217020000744200B204880D883A100F883A8009883A180B883A6F
:200090001A000115403EE83A047FFFC48009883A018000743187A40401C000441440071E1C
:2000980000FFFFC41805883ADFC00217DC400117DC000017DEC00304F800283A81400217EF
:2000A00028C00117183EE83A0007883A147FF51E003FF3060080007410885F04200B883A45
:2000A800110000170010204120800007100005262007883A18C0004418800007103FFD1EAF
:2000B0001905C83AF800283A2880000BDEFFFA04DCC003151080020CDC800215DC40011531
:2000B800DFC00515DD000415DC0000152825883A2027883A3023883A100020262940008F0D
:2000C00028000F1601C01B0E3821883A05010004000002060400170E9140008F880D883ADC
:2000C8009809883A800F883AA400010E01C100040010384088A3883A80A1C83A00BFF51689
:2000D0009080000B00FFFFC4108010149080000D1805883ADFC00517DD000417DCC003171A
:2000D800DC800217DC400117DC000017DEC00604F800283A0007883A003FF50600FFFFC4A5
:2000E000003FF306DEFFFD04DC0000150400007484092204DC400115800000152023883A02
:2000E8002809883A300B883A380D883ADFC00215001055401007883A00BFFFC41880062687
:2000F0001805883ADFC00217DC400117DC000017DEC00304F800283A80800017103FF826AF
:2000F800888000151805883ADFC00217DC400117DC000017DEC00304F800283ADEFFFE042F
:20010000DFC00115DF000015D839883A0100007421086A04014000742947B2040180007487
:2001080031886A04001047C0010000742100080401400074294008040180007431806D04B6
:20011000001047C00100007421079F040140007429479F04018000743187B204001047C036
:200118000010C3C00010E600E037883ADFC00117DF000017DEC00204F800283ADEFFFC04DD
:20012000DF000315DF000304E13FFD15E17FFE15E1BFFF15E0FFFE17E0BFFD1718800E2616
:2001280000000A06E0BFFD1710C00017E0BFFE1710C00015E0BFFE1710800104E0BFFE1579
:20013000E0BFFD1710800104E0BFFD15E0FFFE17E0BFFF1718BFF31EE037883ADF00001756
:20013800DEC00104F800283ADEFFFD04DFC00215DF000115DF0001040009883A00106D40B5
:2001400000107080010000742107A504014000742947A504018000743187A5040011220002
:200148000010D9800100007421037F040011A7C0D120C417D160C517D1A0C61700101D0046
:20015000E0BFFF15010000440010AE00E13FFF170011A900DEFFF704DFC00815DF0007155A
:20015800DF000704E13FFB15E17FFC15E1BFFD15E0BFFB171004803A1000081EE0BFFB17E4
:20016000108003241007883A008000741087FF041887883AE0FFFF1500000106E03FFF15D3
:20016800E0BFFF17E0BFFA15E0BFFA171005003A1000241EE0BFFA1710800217108000CC0E
:200170001005003A10001A1EE0BFFA1710800017108006171005003A1000151EE0BFFA1792
:200178001080001710800617E17FFC17E1BFFD17E13FFA17103EE83AE0BFF915E0BFF917EF
:200180001004403A1000071E00106740E0FFF91700C7C83A10C0001500BFFFC4E0BFFE1514
:2001880000000E06E0BFF917E0BFFE1500000B06001067401007883A0080034418800015CD
:2001900000000406001067401007883A008014441880001500BFFFC4E0BFFE15E0BFFE1748
:20019800E037883ADFC00117DF000017DEC00204F800283ADEFFFD04DFC00215DF0001153A
:2001A000DF0001040080007410886604108000171005003A1000061E008000741088660445
:2001A80010800017103EE83AE0BFFF15000003060080007410892204E0BFFF15E0BFFF1749
:2001B000E037883ADFC00117DF000017DEC00204F800283ADEFFFD04DFC00215DF00011522
:2001B800DF000104E13FFF1500117600008000441001703AE037883ADFC00117DF00001783
:2001C000DEC00204F800283ADEFFFE04DFC00115DF000015D839883A010000B421040804E0
:2001C800000B883A000D883A01C0FA040010A500010000742107EA0400107500E037883A1E
:2001D000DFC00117DF000017DEC00204F800283ADEFFFD04DFC00215DF000115DF000104F7
:2001D800E13FFF15E13FFF1701400074294863040010C840E037883ADFC00117DF00001772
:2001E000DEC00204F800283ADEFFFA04DFC00515DF000415DF000404E13FFD15E17FFE15E9
:2001E800E1BFFF15E0BFFD1710800017E0BFFC15E0BFFC1711000A04E0BFFD1711C00217CB
:2001F000E17FFE17E1BFFF1700108380E037883ADFC00117DF000017DEC00204F800283A2D
:2001F800DEFFFA04DFC00515DF000415DF000404E13FFD15E17FFE15E1BFFF15E0BFFD1768
:2002000010800017E0BFFC15E0BFFC1711000A04E0BFFD1711C00217E17FFE17E1BFFF17EE
:20020800001093C0E037883ADFC00117DF000017DEC00204F800283ADEFFF604DF0009151B
:20021000DF000904E13FFB15E17FFC15E1BFFD15E1FFFE15E0BFFB1710800017E0BFFA1596
:20021800E0BFFC17E0BFF915E0BFFD171007883AE0BFFC1710C5883AE0BFF81500001606CA
:20022000E0BFFA1710800037E0BFF715E0BFF71710A0000C1005003A1000081EE0BFF71701
:200228001007883AE0BFF91710C00005E0BFF91710800044E0BFF91500000706E0FFF9172D
:20023000E0BFFC171880071EE0BFFE171090000C1004C03A1000031EE0FFF917E0BFF81703
:2002380018BFE736E0FFF917E0BFFC1718800526E0FFF917E0BFFC171887C83AE0FFFF1519
:2002400000000906E0BFFE171090000C1005003A1000031E00BFFD44E0BFFF1500000206F4
:2002480000BFFEC4E0BFFF15E0BFFF17E037883ADF000017DEC00104F800283ADEFFF90407
:20025000DF000615DF000604E13FFC15E17FFD15E1BFFE15E1FFFF15E0BFFC171080001708
:20025800E0BFFB15E0BFFE171007883AE0BFFD1710C5883AE0BFFA1500001106E0BFFB178A
:20026000108001041080003710BFFFEC1005003A10000B1EE13FFB17E0BFFD171080000368
:2002680010C03FCC18C0201C18FFE004E0BFFD1710800044E0BFFD152005883A10C0003568
:20027000E0FFFD17E0BFFA1718BFEC36E0BFFE17E037883ADF000017DEC00104F800283A52
:20027800DEFFFA04DFC00515DF000415DF000404E13FFF15E0BFFF1710000035E0BFFF1710
:2002800010800104108000370005303AE0BFFD15E0FFFD1700BFFF841884703A1001703AAC
:20028800E0BFFD17E0BFFE1500116540E0BFFE17E0BFFC15E0BFFC171001703AE037883A91
:20029000DFC00117DF000017DEC00204F800283ADEFFF804DFC00715DF000615DF0006042C
:20029800E13FFC15E17FFD15E1BFFE15E1FFFF15E0BFFF17E0BFFB150080007410892704E0
:2002A000108000171004C03A1000041E00C0007418C92704E0BFFB1718800015E0BFFC1707
:2002A800108001041007883A008001C418800035D8000015E13FFD17E17FFE17018000742B
:2002B00031827804E1FFFC170010E900E037883ADFC00117DF000017DEC00204F800283A8F
:2002B800DEFFF804DFC00715DF000615DF000604E13FFC15E0BFFC171004803A1000081EC8
:2002C000E0BFFC17108003241007883A008000741087FF041887883AE0FFFF1500000106F3
:2002C800E03FFF15E0BFFF17E0BFFB15E0BFFB171005003A10001D1EE0BFFB1710800017DC
:2002D000108004171005003A1000071EE0BFFB171080001710800417E13FFB17103EE83A3A
:2002D800E0BFFE1500000106E03FFE15E0BFFE17E0BFFA15E13FFC17001155C0E0BFFA17B0
:2002E0001004403A1000071E0010BDC0E0FFFA1700C7C83A10C0001500BFFFC4E0BFFD15DD
:2002E80000000806E03FFD15000006060010BDC01007883A008014441880001500BFFFC43E
:2002F000E0BFFD15E0BFFD17E037883ADFC00117DF000017DEC00204F800283ADEFFFD0428
:2002F800DFC00215DF000115DF0001040080007410886604108000171005003A1000061E37
:20030000008000741088660410800017103EE83AE0BFFF1500000306008000741089220461
:20030800E0BFFF15E0BFFF17E037883ADFC00117DF000017DEC00204F800283ADEFFFF0409
:20031000DF000015D839883AE037883ADF000017DEC00104F800283ADEFFFC04DF00031566
:20031800DF000304E13FFD15E17FFE15E1BFFF15E0BFFF17E037883ADF000017DEC001045F
:20032000F800283ADEFFF904DFC00615DF000515DF000504E13FFD15E17FFE15E0BFFD1796
:200328001005003A1000041EE0BFFD17108002171004C03A1000071E0010D3801007883A59
:20033000008005841880001500BFFA84E0BFFF1500001306E0FFFD17E0BFFE17E0BFFB1598
:20033800E0FFFC15E0FFFC17E0BFFB1718800115E0BFFB1710C00017E0BFFC1710C0001535
:20034000E0BFFB1710C00017E0BFFC1718800115E0FFFB17E0BFFC1718800015E03FFF1522
:20034800E0BFFF17E037883ADFC00117DF000017DEC00204F800283ADEFFFD04DFC00215C8
:20035000DF000115DF0001040080007410886604108000171005003A1000061E00800074A0
:200358001088660410800017103EE83AE0BFFF15000003060080007410892204E0BFFF154A
:20036000E0BFFF17E037883ADFC00117DF000017DEC00204F800283ADEFFFD04DFC00215B0
:20036800DF000115DF00010400BFFF0400C0007418C79F041885883AE0BFFF150000060606
:20037000E0BFFF1710800017103EE83AE0BFFF1710BFFF04E0BFFF15E0FFFF17008000747E
:2003780010879E0418BFF62EE037883ADFC00117DF000017DEC00204F800283ADEFFFD04CF
:20038000DFC00215DF000115DF00010400BFFF0400C0007418C79F041885883AE0BFFF1544
:2003880000000606E0BFFF1710800017103EE83AE0BFFF1710BFFF04E0BFFF15E0FFFF174E
:200390000080007410879F0418BFF62EE037883ADFC00117DF000017DEC00204F800283AA0
:20039800DEFFFE04DFC00115DF000015D839883A0009883A0144000400119EC0E037883A8E
:2003A000DFC00117DF000017DEC00204F800283ADEFFF904DFC00615DF000515DF0005041D
:2003A800E13FFC15E17FFD15E1BFFE15E1FFFF15E0800217D8800015E13FFC17E17FFD175E
:2003B000E1BFFE17E1FFFF1700110640E037883ADFC00117DF000017DEC00204F800283AA7
:2003B800DEFFF904DF000615DF000604E13FFE15E17FFF15E0BFFF17E0BFFC150005303AED
:2003C000E0BFFB15E0FFFB1700BFFF841884703A1001703AE0BFFB17E0BFFD15E0FFFC17E6
:2003C8000080004410C4983A1007883A0080007410892604108000171886B03A00800074F8
:2003D0001089260410C00015008000741089260410800017100170FAE0BFFD17E0BFFA152B
:2003D800E0BFFA171001703A0005883AE037883ADF000017DEC00104F800283ADEFFF9042D
:2003E000DF000615DF000604E13FFE15E17FFF15E0BFFF17E0BFFC150005303AE0BFFB15F0
:2003E800E0FFFB1700BFFF841884703A1001703AE0BFFB17E0BFFD15E0FFFC1700800044A9
:2003F00010C4983A0084303A1007883A0080007410892604108000171886703A00800074E6
:2003F8001089260410C00015008000741089260410800017100170FAE0BFFD17E0BFFA1503
:20040000E0BFFA171001703A0005883AE037883ADF000017DEC00104F800283ADEFFFC0401
:20040800DF000315DF000304E13FFE15E17FFF15000530FAE0BFFD15E0FFFF1700800044B7
:2004100010C4983A1007883AE0BFFD171884703A1004C03AE037883ADF000017DEC00104D4
:20041800F800283ADEFFF404DFC00B15DF000A15DF000A04E13FFB15E17FFC15E1BFFD1598
:20042000E1FFFE1500BFFA84E0BFFA15E0BFFC17E0BFF915E0BFF917108008081000291ED9
:200428000005303AE0BFF715E0FFF71700BFFF841884703A1001703AE0BFF717E0BFF81511
:20043000E0BFF91700C0007418C92904100490FA10C7883AE0BFFD1718800015E0BFF91775
:2004380000C0007418C92904100490FA10C5883A10C00104E0BFFE1718800015E0BFFD1744
:200440001005003A1000051EE17FF917E13FFB170010EE00E0BFFF1500000406E17FF9174D
:20044800E13FFB170010F7C0E0BFFF15E0BFFF17E0BFFA15E0BFF817E0BFF615E0BFF61781
:200450001001703AE0BFFA17E037883ADFC00117DF000017DEC00204F800283ADEFFF904C3
:20045800DFC00615DF000515DF000504E13FFC15E17FFD15E1BFFE15E1FFFF15E13FFD176B
:20046000E17FFE17E1BFFF1700113740E0BFFB15E0BFFB171004803A10001C1EE0BFFB17A0
:2004680000C0007418C7FF041080032410C5883A10C00017E0BFFC1710C00015E0BFFB17E1
:2004700000C0007418C7FF041080032410C5883A1080010410C00017E0BFFC1710C00115F4
:20047800E0BFFB1700C0007418C7FF041080032410C5883A1080020410C00017E0BFFC1720
:2004800010C00215E13FFB17001155C0E037883ADFC00117DF000017DEC00204F800283A99
:20048800DEFFFB04DFC00415DF000315DF000304E13FFD15E17FFE15E1BFFF150100007415
:2004900021080204E17FFD170180004401C07FC4001115C0010000742107FF04E17FFE17E5
:20049800000D883A01C07FC4001115C00100007421080504E17FFF170180004401C07FC4A5
:2004A000001115C0E037883ADFC00117DF000017DEC00204F800283ADEFFFC04DF000315FE
:2004A800DF000304E13FFE15E0BFFE171080021710D00034E0BFFE1710C00215E03FFD15DE
:2004B00000002006E0BFFD1700C0007418C7FF041080032410C5883A10C00017E0BFFE1754
:2004B800108000171880141EE0BFFD1700C0007418C7FF041080032410C5883A1080020406
:2004C000108000171004403A10000B1EE0BFFD17108003241007883A008000741087FF04DD
:2004C8001887883AE0BFFE171880032600BFFCC4E0BFFF1500000A06E0BFFD171080004475
:2004D000E0BFFD150080007410886504108000171007883AE0BFFD1718BFDA2EE03FFF1521
:2004D800E0BFFF17E037883ADF000017DEC00104F800283ADEFFF404DFC00B15DF000A15F1
:2004E000DF000A04E13FFB15E17FFC15E1BFFD1500BFFFC4E0BFF81500BFFB44E0BFF715E5
:2004E800E03FF615E13FFB17014000742948630400117800E0BFFA15E0BFFA171004C03A16
:2004F0001000051EE13FFB1700118140E0BFFA1500800044E0BFF615E0BFFA171005003A9A
:2004F8001000301EE13FFA1700119340E0BFF815E0BFF8171004403A1000031EE0BFF817AA
:20050000E0BFF71500002906E0BFF817108003241007883A008000741087FF041885883AD6
:20050800E0BFF915E0FFFC170090003410BFFFC41886703AE0BFF91710C00215E0BFF61754
:200510001004C03A1000061EE13FF91700112980E0BFF715E0BFF7171004803A1000131E38
:20051800E0BFFA17108003171005003A1000091EE0BFFA1710800317E13FF917E17FFB17E7
:20052000E1BFFC17E1FFFD17103EE83AE0BFFF1500000106E03FFF15E0BFFF17E0BFF71557
:200528000000020600BFFB44E0BFF715E0BFF7171004403A1000091EE13FF817001155C03B
:2005300000114FC0E0FFF71700C7C83A10C0001500BFFFC4E0BFFE1500000206E0BFF81706
:20053800E0BFFE15E0BFFE17E037883ADFC00117DF000017DEC00204F800283ADEFFFD04DB
:20054000DFC00215DF000115DF0001040080007410886604108000171005003A1000061EEC
:20054800008000741088660410800017103EE83AE0BFFF1500000306008000741089220417
:20055000E0BFFF15E0BFFF17E037883ADFC00117DF000017DEC00204F800283ADEFFFE04C0
:20055800DF000115DF000104E13FFF15E0BFFF17108000D010000D1EE0BFFF1700C000743D
:2005600018C7FF041080032410C5883A1080020410000015E0BFFF1700C0007418C7FF04C5
:200568001080032410C5883A10000015E037883ADF000017DEC00104F800283ADEFFFA0459
:20057000DF000515DF000504E13FFF150005303AE0BFFD15E0FFFD1700BFFF841884703ABB
:200578001001703AE0BFFD17E0BFFE15E0BFFF17E0BFFC15E0BFFC1710C00017E0BFFC1793
:200580001080011718800115E0BFFC1710C00117E0BFFC171080001718800015E0FFFC1773
:20058800E0BFFC1718800115E0FFFC17E0BFFC1718800015E0BFFE17E0BFFB15E0BFFB178E
:200590001001703AE037883ADF000017DEC00104F800283ADEFFFB04DFC00415DF00031539
:20059800DF000304D0A00917E0BFFE15D0A0C91710800044D0A0C91500003106E0BFFE17BE
:2005A00010800017E0BFFF15E0BFFE171080040310803FCC1005003A1000051ED0A0C91729
:2005A8001004C03A1000021EE0BFFE1710000405E0BFFE1710C00217D0A0C91710C01E3617
:2005B000E0BFFE171080040310803FCC1004C03A1000191EE0BFFE1710C00317E0BFFE179E
:2005B80011000517183EE83AE0BFFD15E0BFFD171004C03A1000031EE13FFE1700115BC07A
:2005C00000000D06E0BFFE1710C00217E0BFFD171887883AE0BFFE1710C00215E0BFFE1708
:2005C80010C00217D0A0C9171880032EE0FFFE170080004418800405E0BFFF17E0BFFE1551
:2005D000D0E00904E0BFFE1710FFCC1EE037883ADFC00117DF000017DEC00204F800283A1D
:2005D800DEFFFF04DF000015D839883A000170FAE037883ADF000017DEC00104F800283A25
:2005E000DEFFF904DFC00615DF000515DF000504E13FFD15E17FFE15E0BFFE171080001786
:2005E800E0BFFC15E13FFD1700102A8010800044E0BFFB1500000D06E0BFFC1711000217E3
:2005F000E1BFFB17E17FFD170011AB001004C03A1000031EE0BFFC17E0BFFF150000070658
:2005F800E0BFFC1710800017E0BFFC15E0FFFE17E0BFFC1710FFF01EE03FFF15E0BFFF172F
:20060000E037883ADFC00117DF000017DEC00204F800283ADEFFFA04DFC00515DF000415CA
:20060800DF000404E13FFE15008000741088610410800017E0BFFD1500003306E0BFFD1783
:200610001100021700102A80E0BFFC15E0BFFD1710C00217E0BFFC171885883A10BFFFC4F7
:200618001080000310803FCC1080201C10BFE00410800BD81000031EE0BFFC1710BFFFC42D
:20062000E0BFFC15E0BFFC171007883AE0BFFE171885883A1080000310803FCC1080201C72
:2006280010BFE00410800BE010000A1EE0BFFC171007883AE0BFFE171885883A108000031B
:2006300010803FCC1080201C10BFE0041004C03A10000A1EE0BFFD1711000217E1BFFC17BA
:20063800E17FFE170011AB001004C03A1000031EE0BFFD17E0BFFF1500000806E0BFFD170B
:2006400010800017E0BFFD1500C0007418C86104E0BFFD1710FFC91EE03FFF15E0BFFF1738
:20064800E037883ADFC00117DF000017DEC00204F800283ADEFFFC04DF000315DF00030454
:20065000E13FFF1500BFFA04E0BFFD15E03FFE1500001E06E0BFFE1700C0007418C7FF04C8
:200658001080032410C5883A108000171004C03A1000131EE0BFFE1700C0007418C7FF0474
:200660001080032410C7883AE0BFFF1718800015008000741088650410C00017E0BFFE1738
:200668001880040E00C0007418C86504E0BFFE1718800015E0BFFE17E0BFFD150000060679
:20067000E0BFFE1710800044E0BFFE15E0BFFE1710800810103FDF1EE0BFFD17E037883AFC
:20067800DF000017DEC00104F800283ADEFFFB04DF000415DF000404E13FFE15E17FFF150D
:20068000E0BFFF17108400701000021E00840004E0BFFF15E0FFFE17E0BFFF171885883A2E
:20068800E0BFFC15E0BFFE17E0BFFD1500000506E0BFFD171000603AE0BFFD171080080486
:20069000E0BFFD15E0FFFD17E0BFFC1718BFF836E0BFFE17108007CC1005003A1000021E59
:20069800E0BFFD171000603A0000203AE037883ADF000017DEC00104F800283A200B883AD2
:2006A000000D883A0009883A000F883A0011AEC1DEFFFE04DC400015000B883A2023883A6D
:2006A800DFC001150011C5C08809883A0011E58031FFFFC43000061E00000A0639FFFFC4CC
:2006B00000BFFFC421000044294000443880052620C000032880000318BFF8261885C83A91
:2006B800F800283A0005883AF800283ADEFFF9040080007410886004DC4001151440001740
:2006C000DC000015DD4005158C000C17DD000415DCC00315DC800215DFC006152025883A65
:2006C800282B883A3029883A3827883A8000262681400117008007C411403716900020265D
:2006D00081802217300029268140011700C00044310040171946983A2945883A1085883A34
:2006D8001185883A20C8B03A14C02015150000150080008431004015908018262945883A9D
:2006E0001085883A1405883A28C000440009883A1540021580C001152005883ADFC006176C
:2006E800DD400517DD000417DCC00317DC800217DC400117DC000017DEC00704F800283A6C
:2006F00081400117003FED0600800074108969041021883A88800C15003FD50630804117A7
:2006F80010C4B03A30804115003FE406008000341080000410000B2601004204103EE83AB5
:2007000010000826100D883A100040151000411580802215003FCC06008000341080000461
:200708001000021E013FFFC4003FDB0601002304103EE83A1007883A103FFA2688800C1773
:200710001821883A180001151880001588C00C15903FDB26003FBA06F800283ADEFFF3048D
:200718000080007410886004DF000B151700001700800034108000041005003AD88002159E
:20072000E0800C04DD800915DD400815DFC00C15DDC00A15DD000715DCC00615DC800515F2
:20072800DC400415DC000315282D883AD9000115D8800015282B003AE4400C178800122681
:20073000DDC00017888001178C802217143FFFC480000B169027003AA800171E9800051E50
:200738008409883A2105883A1485883A10C02017B0C01226843FFFC400BFFFC480BFF61E05
:20074000D880021710003226DFC00C17DF000B17DDC00A17DD800917DD400817DD0007178B
:20074800DCC00617DC800517DC400417DC000317DEC00D04F800283A8409883A88C001177B
:200750002105883A1445883A18FFFFC4118002171C00182610000215303FE6268D00011761
:200758009800121E00C000441C06983A908040171884703A10000D26908041171884703A23
:2007600010000E1E2105883A1485883A11400017D9000117303EE83A88800117A0BFC61EAE
:20076800B8800017147FD326003FC306303EE83A003FF9068C000115003FE7062105883A0A
:200770001485883A11000017303EE83A003FF2068880011710000B1E8900001720000A26D6
:20077800B9000015900002269009883A000000008809883A00000000BC400017883FB11E84
:20078000003FC10689000017882F883A2023883A883FAC1E003FBC06DEFFFD04DF000215CF
:20078800DF000204E13FFF15E0BFFF17E0BFFE15E0BFFE171005003A1000021E002AF07014
:2007900000000106002AF0B0E037883ADF000017DEC00104F800283ADEFFFD04DFC0021518
:20079800DF000115DF000104E13FFF15E13FFF170011E180003FFF0600011C586C6C65484E
:2007A0007266206F4E206D6F20736F69002149490000000A7665642F61746A2F61755F67E8
:2007A800305F7472000000007665642F61746A2F61755F67305F7472000000007665642F61
:2007B0006C756E2F0000006C0000000000000000000000000000000000000000000000003F
:2007B800000000000000000000000000000000000000000000000000000000000000000021
:2007C000000000000000000000000000000000000000000000000000000000000000000019
:2007C800000000000000000000000000000000000000000000000000000000000000000011
:2007D000000000000000000000000000000000000000000000000000000000000000000009
:2007D800000000000000000000000000000000000000000000000000000000000000000001
:2007E0000000000000000000000000000000000000000000000000000000000000000000F9
:2007E8000000000000000000000000000000000000000000000000000000000000000000F1
:2007F0000000000000000000000000000000000000000000000000000000000000000000E9
:2007F8000000000000000000000000000000000000000000000000000000000000000000E1
:200800000000000000000000000000000000000000000000000000000000000000000000D8
:200808000000000000000000000000000000000000000000000000000000000000000000D0
:200810000000000000000000000000000000000000000000000000000000000000000000C8
:200818000000000000000000000000000000000000000000000000000000000000000000C0
:200820000000000000000000000000000000000000000000000000000000000000000000B8
:200828000000000000000000000000000000000000000000000000000000000000000000B0
:200830000000000000000000000000000000000000000000000000000000000000000000A8
:200838000000000000000000000000000000000000000000000000000000000000000000A0
:20084000000000000000000000000000000000000000000000000000000000000000000098
:20084800000000000000000000000000000000000000000000000000000000000000000090
:20085000000000000000000000000000000000000000000000000000000000000000000088
:20085800000000000000000000000000000000000000000000000000000000000000000080
:20086000000000000000000000000000000000000000000000000000000000000000000078
:2008680000000000000000000000000000011F8800011F9000011F98000000000000000060
:20087000000000000000000000000000000000000000000000000000000000000000000068
:20087800000000000000000000000000000000000000000000000000000000000000000060
:20088000000000000000000000000000000000000000000000000000000000000000000058
:20088800000000000000000000000000000000000000000000000000000000000000000050
:20089000000000000000000000000000000000000000000000000000000000000000000048
:20089800000000000000000000000004000000000001000A000000000002000A0000000025
:2008A0000000000000000000000000000000000000011EA8000000000000000000010788E1
:2008A800000107E0000000000000000000000000000211C80001218C0001218C00011EBC36
:2008B00000000000000000000000000000010C5800000000000000000000000000011FD4CF
:2008B800000000000000000000011FD4000000000000000000011FD4000000000000000038
:2008C000000000000000000000000000000000000000000000000000000000000000000018
:2008C800000000000000000000000000000000000000000000000000000000000000000010
:2008D000000000000000000000000000000000000000000000000000000000000000000008
:2008D800000000000000000000000000000000000000000000000000000000000000000000
:2008E0000000000000000000000000000000000000000000000000000000000000000000F8
:2008E8000000000000000000000000000000000000000000000000000000000000000000F0
:2008F0000000000000000000000000000000000000000000000000000000000000000000E8
:2008F8000000000000000000000000000000000000000000000000000000000000000000E0
:200900000000000000000000000000000000000000000000000000000000000000000000D7
:200908000000000000000000000000000000000000000000000000000000000000000000CF
:200910000000000000000000000000000000000000000000000000000000000000011EC8E0
:2009180000011EC8000121840001218400011FD400011FD4FFFFFFFF00000000FFFFFFFFAC
:20092000000121A0000121A000000000000000000000000000000000000000000000000033
:200928000000000000000000000000000000000000000000000000000000000000000000AF
:200930000000000000000000000000000000000000000000000000000000000000000000A7
:2009380000000000000000000000000000000000000000000000000000000000000000009F
:20094000000000000000000000000000000000000000000000000000000000000000000097
:00000001FF
